{
  "contractName": "MFSToken",
  "abi": [
    {
      "inputs": [
        {
          "internalType": "address",
          "name": "stakeholderWallet",
          "type": "address"
        },
        {
          "internalType": "address",
          "name": "investorWallet",
          "type": "address"
        },
        {
          "internalType": "address",
          "name": "stakingPoolWallet",
          "type": "address"
        },
        {
          "internalType": "address",
          "name": "mainWallet",
          "type": "address"
        },
        {
          "internalType": "address",
          "name": "_feeAddress",
          "type": "address"
        }
      ],
      "stateMutability": "nonpayable",
      "type": "constructor"
    },
    {
      "inputs": [
        {
          "internalType": "address",
          "name": "spender",
          "type": "address"
        },
        {
          "internalType": "uint256",
          "name": "allowance",
          "type": "uint256"
        },
        {
          "internalType": "uint256",
          "name": "needed",
          "type": "uint256"
        }
      ],
      "name": "ERC20InsufficientAllowance",
      "type": "error"
    },
    {
      "inputs": [
        {
          "internalType": "address",
          "name": "sender",
          "type": "address"
        },
        {
          "internalType": "uint256",
          "name": "balance",
          "type": "uint256"
        },
        {
          "internalType": "uint256",
          "name": "needed",
          "type": "uint256"
        }
      ],
      "name": "ERC20InsufficientBalance",
      "type": "error"
    },
    {
      "inputs": [
        {
          "internalType": "address",
          "name": "approver",
          "type": "address"
        }
      ],
      "name": "ERC20InvalidApprover",
      "type": "error"
    },
    {
      "inputs": [
        {
          "internalType": "address",
          "name": "receiver",
          "type": "address"
        }
      ],
      "name": "ERC20InvalidReceiver",
      "type": "error"
    },
    {
      "inputs": [
        {
          "internalType": "address",
          "name": "sender",
          "type": "address"
        }
      ],
      "name": "ERC20InvalidSender",
      "type": "error"
    },
    {
      "inputs": [
        {
          "internalType": "address",
          "name": "spender",
          "type": "address"
        }
      ],
      "name": "ERC20InvalidSpender",
      "type": "error"
    },
    {
      "inputs": [],
      "name": "EnforcedPause",
      "type": "error"
    },
    {
      "inputs": [],
      "name": "ExpectedPause",
      "type": "error"
    },
    {
      "inputs": [
        {
          "internalType": "address",
          "name": "owner",
          "type": "address"
        }
      ],
      "name": "OwnableInvalidOwner",
      "type": "error"
    },
    {
      "inputs": [
        {
          "internalType": "address",
          "name": "account",
          "type": "address"
        }
      ],
      "name": "OwnableUnauthorizedAccount",
      "type": "error"
    },
    {
      "anonymous": false,
      "inputs": [
        {
          "indexed": true,
          "internalType": "address",
          "name": "owner",
          "type": "address"
        },
        {
          "indexed": true,
          "internalType": "address",
          "name": "spender",
          "type": "address"
        },
        {
          "indexed": false,
          "internalType": "uint256",
          "name": "value",
          "type": "uint256"
        }
      ],
      "name": "Approval",
      "type": "event"
    },
    {
      "anonymous": false,
      "inputs": [
        {
          "indexed": true,
          "internalType": "address",
          "name": "oldAddress",
          "type": "address"
        },
        {
          "indexed": true,
          "internalType": "address",
          "name": "newAddress",
          "type": "address"
        }
      ],
      "name": "FeeAddressUpdated",
      "type": "event"
    },
    {
      "anonymous": false,
      "inputs": [
        {
          "indexed": true,
          "internalType": "address",
          "name": "account",
          "type": "address"
        },
        {
          "indexed": false,
          "internalType": "bool",
          "name": "status",
          "type": "bool"
        }
      ],
      "name": "FeeExemptStatusUpdated",
      "type": "event"
    },
    {
      "anonymous": false,
      "inputs": [
        {
          "indexed": true,
          "internalType": "address",
          "name": "previousOwner",
          "type": "address"
        },
        {
          "indexed": true,
          "internalType": "address",
          "name": "newOwner",
          "type": "address"
        }
      ],
      "name": "OwnershipTransferred",
      "type": "event"
    },
    {
      "anonymous": false,
      "inputs": [
        {
          "indexed": false,
          "internalType": "address",
          "name": "account",
          "type": "address"
        }
      ],
      "name": "Paused",
      "type": "event"
    },
    {
      "anonymous": false,
      "inputs": [
        {
          "indexed": true,
          "internalType": "address",
          "name": "from",
          "type": "address"
        },
        {
          "indexed": true,
          "internalType": "address",
          "name": "to",
          "type": "address"
        },
        {
          "indexed": false,
          "internalType": "uint256",
          "name": "value",
          "type": "uint256"
        }
      ],
      "name": "Transfer",
      "type": "event"
    },
    {
      "anonymous": false,
      "inputs": [
        {
          "indexed": true,
          "internalType": "address",
          "name": "from",
          "type": "address"
        },
        {
          "indexed": true,
          "internalType": "address",
          "name": "to",
          "type": "address"
        },
        {
          "indexed": false,
          "internalType": "uint256",
          "name": "amount",
          "type": "uint256"
        },
        {
          "indexed": false,
          "internalType": "uint256",
          "name": "fee",
          "type": "uint256"
        }
      ],
      "name": "TransferFeeCollected",
      "type": "event"
    },
    {
      "anonymous": false,
      "inputs": [
        {
          "indexed": false,
          "internalType": "uint256",
          "name": "oldFee",
          "type": "uint256"
        },
        {
          "indexed": false,
          "internalType": "uint256",
          "name": "newFee",
          "type": "uint256"
        }
      ],
      "name": "TransferFeeUpdated",
      "type": "event"
    },
    {
      "anonymous": false,
      "inputs": [
        {
          "indexed": false,
          "internalType": "address",
          "name": "account",
          "type": "address"
        }
      ],
      "name": "Unpaused",
      "type": "event"
    },
    {
      "inputs": [],
      "name": "DECIMALS",
      "outputs": [
        {
          "internalType": "uint8",
          "name": "",
          "type": "uint8"
        }
      ],
      "stateMutability": "view",
      "type": "function",
      "constant": true
    },
    {
      "inputs": [],
      "name": "MAX_TRANSFER_FEE",
      "outputs": [
        {
          "internalType": "uint256",
          "name": "",
          "type": "uint256"
        }
      ],
      "stateMutability": "view",
      "type": "function",
      "constant": true
    },
    {
      "inputs": [],
      "name": "TOTAL_SUPPLY",
      "outputs": [
        {
          "internalType": "uint256",
          "name": "",
          "type": "uint256"
        }
      ],
      "stateMutability": "view",
      "type": "function",
      "constant": true
    },
    {
      "inputs": [
        {
          "internalType": "address",
          "name": "owner",
          "type": "address"
        },
        {
          "internalType": "address",
          "name": "spender",
          "type": "address"
        }
      ],
      "name": "allowance",
      "outputs": [
        {
          "internalType": "uint256",
          "name": "",
          "type": "uint256"
        }
      ],
      "stateMutability": "view",
      "type": "function",
      "constant": true
    },
    {
      "inputs": [
        {
          "internalType": "address",
          "name": "spender",
          "type": "address"
        },
        {
          "internalType": "uint256",
          "name": "value",
          "type": "uint256"
        }
      ],
      "name": "approve",
      "outputs": [
        {
          "internalType": "bool",
          "name": "",
          "type": "bool"
        }
      ],
      "stateMutability": "nonpayable",
      "type": "function"
    },
    {
      "inputs": [
        {
          "internalType": "address",
          "name": "account",
          "type": "address"
        }
      ],
      "name": "balanceOf",
      "outputs": [
        {
          "internalType": "uint256",
          "name": "",
          "type": "uint256"
        }
      ],
      "stateMutability": "view",
      "type": "function",
      "constant": true
    },
    {
      "inputs": [],
      "name": "feeAddress",
      "outputs": [
        {
          "internalType": "address",
          "name": "",
          "type": "address"
        }
      ],
      "stateMutability": "view",
      "type": "function",
      "constant": true
    },
    {
      "inputs": [
        {
          "internalType": "address",
          "name": "",
          "type": "address"
        }
      ],
      "name": "feeExempt",
      "outputs": [
        {
          "internalType": "bool",
          "name": "",
          "type": "bool"
        }
      ],
      "stateMutability": "view",
      "type": "function",
      "constant": true
    },
    {
      "inputs": [],
      "name": "name",
      "outputs": [
        {
          "internalType": "string",
          "name": "",
          "type": "string"
        }
      ],
      "stateMutability": "view",
      "type": "function",
      "constant": true
    },
    {
      "inputs": [],
      "name": "owner",
      "outputs": [
        {
          "internalType": "address",
          "name": "",
          "type": "address"
        }
      ],
      "stateMutability": "view",
      "type": "function",
      "constant": true
    },
    {
      "inputs": [],
      "name": "paused",
      "outputs": [
        {
          "internalType": "bool",
          "name": "",
          "type": "bool"
        }
      ],
      "stateMutability": "view",
      "type": "function",
      "constant": true
    },
    {
      "inputs": [],
      "name": "renounceOwnership",
      "outputs": [],
      "stateMutability": "nonpayable",
      "type": "function"
    },
    {
      "inputs": [],
      "name": "symbol",
      "outputs": [
        {
          "internalType": "string",
          "name": "",
          "type": "string"
        }
      ],
      "stateMutability": "view",
      "type": "function",
      "constant": true
    },
    {
      "inputs": [],
      "name": "totalSupply",
      "outputs": [
        {
          "internalType": "uint256",
          "name": "",
          "type": "uint256"
        }
      ],
      "stateMutability": "view",
      "type": "function",
      "constant": true
    },
    {
      "inputs": [
        {
          "internalType": "address",
          "name": "to",
          "type": "address"
        },
        {
          "internalType": "uint256",
          "name": "value",
          "type": "uint256"
        }
      ],
      "name": "transfer",
      "outputs": [
        {
          "internalType": "bool",
          "name": "",
          "type": "bool"
        }
      ],
      "stateMutability": "nonpayable",
      "type": "function"
    },
    {
      "inputs": [],
      "name": "transferFee",
      "outputs": [
        {
          "internalType": "uint256",
          "name": "",
          "type": "uint256"
        }
      ],
      "stateMutability": "view",
      "type": "function",
      "constant": true
    },
    {
      "inputs": [
        {
          "internalType": "address",
          "name": "from",
          "type": "address"
        },
        {
          "internalType": "address",
          "name": "to",
          "type": "address"
        },
        {
          "internalType": "uint256",
          "name": "value",
          "type": "uint256"
        }
      ],
      "name": "transferFrom",
      "outputs": [
        {
          "internalType": "bool",
          "name": "",
          "type": "bool"
        }
      ],
      "stateMutability": "nonpayable",
      "type": "function"
    },
    {
      "inputs": [
        {
          "internalType": "address",
          "name": "newOwner",
          "type": "address"
        }
      ],
      "name": "transferOwnership",
      "outputs": [],
      "stateMutability": "nonpayable",
      "type": "function"
    },
    {
      "inputs": [],
      "name": "decimals",
      "outputs": [
        {
          "internalType": "uint8",
          "name": "",
          "type": "uint8"
        }
      ],
      "stateMutability": "view",
      "type": "function",
      "constant": true
    },
    {
      "inputs": [
        {
          "internalType": "address",
          "name": "_newFeeAddress",
          "type": "address"
        }
      ],
      "name": "setFeeAddress",
      "outputs": [],
      "stateMutability": "nonpayable",
      "type": "function"
    },
    {
      "inputs": [
        {
          "internalType": "uint256",
          "name": "_newFee",
          "type": "uint256"
        }
      ],
      "name": "setTransferFee",
      "outputs": [],
      "stateMutability": "nonpayable",
      "type": "function"
    },
    {
      "inputs": [
        {
          "internalType": "address",
          "name": "_account",
          "type": "address"
        },
        {
          "internalType": "bool",
          "name": "_status",
          "type": "bool"
        }
      ],
      "name": "setFeeExempt",
      "outputs": [],
      "stateMutability": "nonpayable",
      "type": "function"
    },
    {
      "inputs": [],
      "name": "pause",
      "outputs": [],
      "stateMutability": "nonpayable",
      "type": "function"
    },
    {
      "inputs": [],
      "name": "unpause",
      "outputs": [],
      "stateMutability": "nonpayable",
      "type": "function"
    }
  ],
  "bytecode": "0x608060405234801562000010575f80fd5b506040516200186838038062001868833981016040819052620000339162000721565b336040518060400160405280600a8152602001694d46532043727970746f60b01b815250604051806040016040528060038152602001624d465360e81b81525081600390816200008491906200082c565b5060046200009382826200082c565b5050506001600160a01b038116620000c557604051631e4fbdf760e01b81525f60048201526024015b60405180910390fd5b620000d0816200021d565b506001600160a01b03851615801590620000f257506001600160a01b03841615155b80156200010757506001600160a01b03831615155b80156200011c57506001600160a01b03821615155b80156200013157506001600160a01b03811615155b6200017f5760405162461bcd60e51b815260206004820152601660248201527f4d4653546f6b656e3a207a65726f2061646472657373000000000000000000006044820152606401620000bc565b622dc6c0600655600780546001600160a01b0319166001600160a01b038316179055620001b530670de0b6b3a764000062000276565b662386f26fc10000620001ca308783620002b2565b620001d7308683620002b2565b620001e4308583620002b2565b620002113084620001f784600362000908565b6200020b90670de0b6b3a764000062000922565b620002b2565b5050505050506200094e565b600580546001600160a01b03838116610100818102610100600160a81b031985161790945560405193909204169182907f8be0079c531659141344cd1fd0a4f28419497f9722a3daafe3b4186f6b6457e0905f90a35050565b6001600160a01b038216620002a15760405163ec442f0560e01b81525f6004820152602401620000bc565b620002ae5f83836200031a565b5050565b6001600160a01b038316620002dd57604051634b637e8f60e11b81525f6004820152602401620000bc565b6001600160a01b038216620003085760405163ec442f0560e01b81525f6004820152602401620000bc565b620003158383836200031a565b505050565b62000326838362000463565b1562000456575f620003388262000580565b9050801562000454578162000361856001600160a01b03165f9081526020819052604090205490565b1015620003c05760405162461bcd60e51b815260206004820152602660248201527f45524332303a207472616e7366657220616d6f756e7420657863656564732062604482015265616c616e636560d01b6064820152608401620000bc565b5f620003cd828462000922565b9050620003dc85858362000598565b600754620003f69086906001600160a01b03168462000598565b836001600160a01b0316856001600160a01b03167ffb80d84775ea35878c1a64214895ca33241361eaebcc8eb2b730ebc7cc3b7eed858560405162000445929190918252602082015260400190565b60405180910390a35050505050565b505b6200031583838362000598565b5f6001600160a01b03831615806200048257506001600160a01b038216155b156200049057505f6200057a565b620004a860055461010090046001600160a01b031690565b6001600160a01b0316836001600160a01b03161480620004d557506007546001600160a01b038381169116145b15620004e357505f6200057a565b6001600160a01b0383163014806200050357506001600160a01b03821630145b806200051c57506007546001600160a01b038481169116145b156200052a57505f6200057a565b6001600160a01b0383165f9081526008602052604090205460ff16806200056857506001600160a01b0382165f9081526008602052604090205460ff165b156200057657505f6200057a565b5060015b92915050565b5f60065482101562000590575090565b505060065490565b620005a2620005af565b62000315838383620005d6565b60055460ff1615620005d45760405163d93c066560e01b815260040160405180910390fd5b565b6001600160a01b03831662000604578060025f828254620005f8919062000938565b90915550620006769050565b6001600160a01b0383165f9081526020819052604090205481811015620006585760405163391434e360e21b81526001600160a01b03851660048201526024810182905260448101839052606401620000bc565b6001600160a01b0384165f9081526020819052604090209082900390555b6001600160a01b0382166200069457600280548290039055620006b2565b6001600160a01b0382165f9081526020819052604090208054820190555b816001600160a01b0316836001600160a01b03167fddf252ad1be2c89b69c2b068fc378daa952ba7f163c4a11628f55a4df523b3ef83604051620006f891815260200190565b60405180910390a3505050565b80516001600160a01b03811681146200071c575f80fd5b919050565b5f805f805f60a0868803121562000736575f80fd5b620007418662000705565b9450620007516020870162000705565b9350620007616040870162000705565b9250620007716060870162000705565b9150620007816080870162000705565b90509295509295909350565b634e487b7160e01b5f52604160045260245ffd5b600181811c90821680620007b657607f821691505b602082108103620007d557634e487b7160e01b5f52602260045260245ffd5b50919050565b601f82111562000315575f81815260208120601f850160051c81016020861015620008035750805b601f850160051c820191505b8181101562000824578281556001016200080f565b505050505050565b81516001600160401b038111156200084857620008486200078d565b6200086081620008598454620007a1565b84620007db565b602080601f83116001811462000896575f84156200087e5750858301515b5f19600386901b1c1916600185901b17855562000824565b5f85815260208120601f198616915b82811015620008c657888601518255948401946001909101908401620008a5565b5085821015620008e457878501515f19600388901b60f8161c191681555b5050505050600190811b01905550565b634e487b7160e01b5f52601160045260245ffd5b80820281158282048414176200057a576200057a620008f4565b818103818111156200057a576200057a620008f4565b808201808211156200057a576200057a620008f4565b610f0c806200095c5f395ff3fe608060405234801561000f575f80fd5b5060043610610153575f3560e01c80638456cb59116100bf57806395d89b411161007957806395d89b41146102d6578063a9059cbb146102de578063acb2ad6f146102f1578063b2b6bef5146102fa578063dd62ed3e14610305578063f2fde38b1461033d575f80fd5b80638456cb59146102705780638705fcd4146102785780638da5cb5b1461028b5780638ebfc796146102a15780638f02bb5b146102b4578063902d55a5146102c7575f80fd5b8063398daa8511610110578063398daa85146101de5780633f4ba83a14610200578063412753581461020a5780635c975abb1461023557806370a0823114610240578063715018a614610268575f80fd5b806306fdde0314610157578063095ea7b31461017557806318160ddd1461019857806323b872dd146101aa5780632e0f2625146101bd578063313ce567146101d7575b5f80fd5b61015f610350565b60405161016c9190610cfc565b60405180910390f35b610188610183366004610d62565b6103e0565b604051901515815260200161016c565b6002545b60405190815260200161016c565b6101886101b8366004610d8a565b6103f9565b6101c5600881565b60405160ff909116815260200161016c565b60086101c5565b6101886101ec366004610dc3565b60086020525f908152604090205460ff1681565b61020861041c565b005b60075461021d906001600160a01b031681565b6040516001600160a01b03909116815260200161016c565b60055460ff16610188565b61019c61024e366004610dc3565b6001600160a01b03165f9081526020819052604090205490565b61020861042e565b61020861043f565b610208610286366004610dc3565b61044f565b60055461010090046001600160a01b031661021d565b6102086102af366004610de3565b610506565b6102086102c2366004610e1c565b61056c565b61019c670de0b6b3a764000081565b61015f610609565b6101886102ec366004610d62565b610618565b61019c60065481565b61019c6305f5e10081565b61019c610313366004610e33565b6001600160a01b039182165f90815260016020908152604080832093909416825291909152205490565b61020861034b366004610dc3565b610625565b60606003805461035f90610e64565b80601f016020809104026020016040519081016040528092919081815260200182805461038b90610e64565b80156103d65780601f106103ad576101008083540402835291602001916103d6565b820191905f5260205f20905b8154815290600101906020018083116103b957829003601f168201915b5050505050905090565b5f336103ed818585610662565b60019150505b92915050565b5f33610406858285610674565b6104118585856106f0565b506001949350505050565b61042461074d565b61042c610780565b565b61043661074d565b61042c5f6107d2565b61044761074d565b61042c61082b565b61045761074d565b6001600160a01b0381166104ab5760405162461bcd60e51b81526020600482015260166024820152754d4653546f6b656e3a207a65726f206164647265737360501b60448201526064015b60405180910390fd5b6007546040516001600160a01b038084169216907f11f35a22548bcd4c3788ab4a7e4fba427a2014f02e5d5e2da9af62212c03183f905f90a3600780546001600160a01b0319166001600160a01b0392909216919091179055565b61050e61074d565b6001600160a01b0382165f81815260086020908152604091829020805460ff191685151590811790915591519182527f6eecdfa2d340ee1e582659ebdf050a343614f31cc1179447a8e8893a8504eae8910160405180910390a25050565b61057461074d565b6305f5e1008111156105c85760405162461bcd60e51b815260206004820152601960248201527f4d4653546f6b656e3a206665652065786365656473206d61780000000000000060448201526064016104a2565b60065460408051918252602082018390527f940334a9f5c76529ad9447ac490c2073b06d880209383a3d3e4b0ecab72a0d99910160405180910390a1600655565b60606004805461035f90610e64565b5f336103ed8185856106f0565b61062d61074d565b6001600160a01b03811661065657604051631e4fbdf760e01b81525f60048201526024016104a2565b61065f816107d2565b50565b61066f8383836001610868565b505050565b6001600160a01b038381165f908152600160209081526040808320938616835292905220545f198110156106ea57818110156106dc57604051637dc7a0d960e11b81526001600160a01b038416600482015260248101829052604481018390526064016104a2565b6106ea84848484035f610868565b50505050565b6001600160a01b03831661071957604051634b637e8f60e11b81525f60048201526024016104a2565b6001600160a01b0382166107425760405163ec442f0560e01b81525f60048201526024016104a2565b61066f83838361093a565b6005546001600160a01b0361010090910416331461042c5760405163118cdaa760e01b81523360048201526024016104a2565b610788610a71565b6005805460ff191690557f5db9ee0a495bf2e6ff9c91a7834c1ba4fdd244a5e8aa4e537bd38aeae4b073aa335b6040516001600160a01b03909116815260200160405180910390a1565b600580546001600160a01b03838116610100818102610100600160a81b031985161790945560405193909204169182907f8be0079c531659141344cd1fd0a4f28419497f9722a3daafe3b4186f6b6457e0905f90a35050565b610833610a94565b6005805460ff191660011790557f62e78cea01bee320cd4e420270b5ea74000d11b0c9f74754ebdbfc544b05a2586107b53390565b6001600160a01b0384166108915760405163e602df0560e01b81525f60048201526024016104a2565b6001600160a01b0383166108ba57604051634a1406b160e11b81525f60048201526024016104a2565b6001600160a01b038085165f90815260016020908152604080832093871683529290522082905580156106ea57826001600160a01b0316846001600160a01b03167f8c5be1e5ebec7d5bd14f71427d1e84f3dd0314c0f7b2291e5b200ac8c7c3b9258460405161092c91815260200190565b60405180910390a350505050565b6109448383610ab8565b15610a66575f61095382610bb1565b90508015610a64578161097a856001600160a01b03165f9081526020819052604090205490565b10156109d75760405162461bcd60e51b815260206004820152602660248201527f45524332303a207472616e7366657220616d6f756e7420657863656564732062604482015265616c616e636560d01b60648201526084016104a2565b5f6109e28284610eb0565b90506109ef858583610bc8565b600754610a079086906001600160a01b031684610bc8565b836001600160a01b0316856001600160a01b03167ffb80d84775ea35878c1a64214895ca33241361eaebcc8eb2b730ebc7cc3b7eed8585604051610a55929190918252602082015260400190565b60405180910390a35050505050565b505b61066f838383610bc8565b60055460ff1661042c57604051638dfc202b60e01b815260040160405180910390fd5b60055460ff161561042c5760405163d93c066560e01b815260040160405180910390fd5b5f6001600160a01b0383161580610ad657506001600160a01b038216155b15610ae257505f6103f3565b6005546001600160a01b03848116610100909204161480610b1057506007546001600160a01b038381169116145b15610b1c57505f6103f3565b6001600160a01b038316301480610b3b57506001600160a01b03821630145b80610b5357506007546001600160a01b038481169116145b15610b5f57505f6103f3565b6001600160a01b0383165f9081526008602052604090205460ff1680610b9c57506001600160a01b0382165f9081526008602052604090205460ff165b15610ba857505f6103f3565b50600192915050565b5f600654821015610bc0575090565b505060065490565b610bd0610a94565b61066f8383836001600160a01b038316610c00578060025f828254610bf59190610ec3565b90915550610c709050565b6001600160a01b0383165f9081526020819052604090205481811015610c525760405163391434e360e21b81526001600160a01b038516600482015260248101829052604481018390526064016104a2565b6001600160a01b0384165f9081526020819052604090209082900390555b6001600160a01b038216610c8c57600280548290039055610caa565b6001600160a01b0382165f9081526020819052604090208054820190555b816001600160a01b0316836001600160a01b03167fddf252ad1be2c89b69c2b068fc378daa952ba7f163c4a11628f55a4df523b3ef83604051610cef91815260200190565b60405180910390a3505050565b5f6020808352835180828501525f5b81811015610d2757858101830151858201604001528201610d0b565b505f604082860101526040601f19601f8301168501019250505092915050565b80356001600160a01b0381168114610d5d575f80fd5b919050565b5f8060408385031215610d73575f80fd5b610d7c83610d47565b946020939093013593505050565b5f805f60608486031215610d9c575f80fd5b610da584610d47565b9250610db360208501610d47565b9150604084013590509250925092565b5f60208284031215610dd3575f80fd5b610ddc82610d47565b9392505050565b5f8060408385031215610df4575f80fd5b610dfd83610d47565b915060208301358015158114610e11575f80fd5b809150509250929050565b5f60208284031215610e2c575f80fd5b5035919050565b5f8060408385031215610e44575f80fd5b610e4d83610d47565b9150610e5b60208401610d47565b90509250929050565b600181811c90821680610e7857607f821691505b602082108103610e9657634e487b7160e01b5f52602260045260245ffd5b50919050565b634e487b7160e01b5f52601160045260245ffd5b818103818111156103f3576103f3610e9c565b808201808211156103f3576103f3610e9c56fea2646970667358221220ea04b4134209cbe0c8f1225c596a51e30bfc49d4dc1f33f9a25c7799a66b4d5164736f6c63430008150033",
  "immutableReferences": {},
  "source": "// SPDX-License-Identifier: MIT\npragma solidity ^0.8.20;\n\nimport \"@openzeppelin/contracts/token/ERC20/ERC20.sol\";\nimport \"@openzeppelin/contracts/token/ERC20/extensions/ERC20Pausable.sol\";\nimport \"@openzeppelin/contracts/access/Ownable.sol\";\n\ncontract MFSToken is ERC20, ERC20Pausable, Ownable {\n    uint8 public constant DECIMALS = 8;\n\n    function decimals() public view virtual override returns (uint8) {\n        return DECIMALS;\n    }\n    uint256 public constant TOTAL_SUPPLY = 10_000_000_000 * 10**8;\n    uint256 public constant MAX_TRANSFER_FEE = 100_000_000;\n\n    uint256 public transferFee;\n    address public feeAddress;\n    mapping(address => bool) public feeExempt;\n\n    event TransferFeeCollected(\n        address indexed from,\n        address indexed to,\n        uint256 amount,\n        uint256 fee\n    );\n    event FeeAddressUpdated(\n        address indexed oldAddress,\n        address indexed newAddress\n    );\n    event TransferFeeUpdated(uint256 oldFee, uint256 newFee);\n    event FeeExemptStatusUpdated(\n        address indexed account,\n        bool status\n    );\n\n    constructor(\n        address stakeholderWallet,\n        address investorWallet,\n        address stakingPoolWallet,\n        address mainWallet,\n        address _feeAddress\n    ) ERC20(\"MFS Crypto\", \"MFS\") Ownable(msg.sender) {\n        require(\n            stakeholderWallet != address(0) &&\n                investorWallet != address(0) &&\n                stakingPoolWallet != address(0) &&\n                mainWallet != address(0) &&\n                _feeAddress != address(0),\n            \"MFSToken: zero address\"\n        );\n\n        transferFee = 3_000_000;\n        feeAddress = _feeAddress;\n\n        _mint(address(this), TOTAL_SUPPLY);\n\n        uint256 stackAmount = 100_000_000 * 10**8;\n        _transfer(address(this), stakeholderWallet, stackAmount);\n        _transfer(address(this), investorWallet, stackAmount);\n        _transfer(address(this), stakingPoolWallet, stackAmount);\n        _transfer(address(this), mainWallet, TOTAL_SUPPLY - (stackAmount * 3));\n    }\n\n    function setFeeAddress(address _newFeeAddress) external onlyOwner {\n        require(_newFeeAddress != address(0), \"MFSToken: zero address\");\n        emit FeeAddressUpdated(feeAddress, _newFeeAddress);\n        feeAddress = _newFeeAddress;\n    }\n\n    function setTransferFee(uint256 _newFee) external onlyOwner {\n        require(_newFee <= MAX_TRANSFER_FEE, \"MFSToken: fee exceeds max\");\n        emit TransferFeeUpdated(transferFee, _newFee);\n        transferFee = _newFee;\n    }\n\n    function setFeeExempt(address _account, bool _status) external onlyOwner {\n        feeExempt[_account] = _status;\n        emit FeeExemptStatusUpdated(_account, _status);\n    }\n\n    function pause() external onlyOwner {\n        _pause();\n    }\n\n    function unpause() external onlyOwner {\n        _unpause();\n    }\n\n    function _update(\n        address from,\n        address to,\n        uint256 amount\n    ) internal override(ERC20, ERC20Pausable) {\n        if (_shouldApplyFee(from, to)) {\n            uint256 fee = _calculateFee(amount);\n            if (fee > 0) {\n                require(\n                    balanceOf(from) >= amount,\n                    \"ERC20: transfer amount exceeds balance\"\n                );\n                uint256 netAmount = amount - fee;\n                super._update(from, to, netAmount);\n                super._update(from, feeAddress, fee);\n                emit TransferFeeCollected(from, to, amount, fee);\n                return;\n            }\n        }\n        super._update(from, to, amount);\n    }\n\n    function _shouldApplyFee(\n        address from,\n        address to\n    ) internal view returns (bool) {\n        if (from == address(0) || to == address(0)) return false;\n        if (from == owner() || to == feeAddress) return false;\n        if (from == address(this) || to == address(this) || from == feeAddress) return false;\n        if (feeExempt[from] || feeExempt[to]) return false;\n        return true;\n    }\n\n    function _calculateFee(uint256 amount) internal view returns (uint256) {\n        if (amount < transferFee) return amount;\n        return transferFee;\n    }\n}\n",
  "sourcePath": "C:\\Users\\victus\\Documents\\Work\\MFS\\MFS-Token\\contracts\\MFSToken.sol",
  "compiler": {
    "name": "solc",
    "version": "0.8.21+commit.d9974bed.Emscripten.clang"
  },
  "schemaVersion": "3.4.16",
  "updatedAt": "2026-07-22T18:08:56.154Z",
  "networkType": "ethereum",
  "devdoc": {
    "errors": {
      "ERC20InsufficientAllowance(address,uint256,uint256)": [
        {
          "details": "Indicates a failure with the `spender`’s `allowance`. Used in transfers.",
          "params": {
            "allowance": "Amount of tokens a `spender` is allowed to operate with.",
            "needed": "Minimum amount required to perform a transfer.",
            "spender": "Address that may be allowed to operate on tokens without being their owner."
          }
        }
      ],
      "ERC20InsufficientBalance(address,uint256,uint256)": [
        {
          "details": "Indicates an error related to the current `balance` of a `sender`. Used in transfers.",
          "params": {
            "balance": "Current balance for the interacting account.",
            "needed": "Minimum amount required to perform a transfer.",
            "sender": "Address whose tokens are being transferred."
          }
        }
      ],
      "ERC20InvalidApprover(address)": [
        {
          "details": "Indicates a failure with the `approver` of a token to be approved. Used in approvals.",
          "params": {
            "approver": "Address initiating an approval operation."
          }
        }
      ],
      "ERC20InvalidReceiver(address)": [
        {
          "details": "Indicates a failure with the token `receiver`. Used in transfers.",
          "params": {
            "receiver": "Address to which tokens are being transferred."
          }
        }
      ],
      "ERC20InvalidSender(address)": [
        {
          "details": "Indicates a failure with the token `sender`. Used in transfers.",
          "params": {
            "sender": "Address whose tokens are being transferred."
          }
        }
      ],
      "ERC20InvalidSpender(address)": [
        {
          "details": "Indicates a failure with the `spender` to be approved. Used in approvals.",
          "params": {
            "spender": "Address that may be allowed to operate on tokens without being their owner."
          }
        }
      ],
      "EnforcedPause()": [
        {
          "details": "The operation failed because the contract is paused."
        }
      ],
      "ExpectedPause()": [
        {
          "details": "The operation failed because the contract is not paused."
        }
      ],
      "OwnableInvalidOwner(address)": [
        {
          "details": "The owner is not a valid owner account. (eg. `address(0)`)"
        }
      ],
      "OwnableUnauthorizedAccount(address)": [
        {
          "details": "The caller account is not authorized to perform an operation."
        }
      ]
    },
    "events": {
      "Approval(address,address,uint256)": {
        "details": "Emitted when the allowance of a `spender` for an `owner` is set by a call to {approve}. `value` is the new allowance."
      },
      "Paused(address)": {
        "details": "Emitted when the pause is triggered by `account`."
      },
      "Transfer(address,address,uint256)": {
        "details": "Emitted when `value` tokens are moved from one account (`from`) to another (`to`). Note that `value` may be zero."
      },
      "Unpaused(address)": {
        "details": "Emitted when the pause is lifted by `account`."
      }
    },
    "kind": "dev",
    "methods": {
      "allowance(address,address)": {
        "details": "Returns the remaining number of tokens that `spender` will be allowed to spend on behalf of `owner` through {transferFrom}. This is zero by default. This value changes when {approve} or {transferFrom} are called."
      },
      "approve(address,uint256)": {
        "details": "See {IERC20-approve}. NOTE: If `value` is the maximum `uint256`, the allowance is not updated on `transferFrom`. This is semantically equivalent to an infinite approval. Requirements: - `spender` cannot be the zero address."
      },
      "balanceOf(address)": {
        "details": "Returns the value of tokens owned by `account`."
      },
      "decimals()": {
        "details": "Returns the number of decimals used to get its user representation. For example, if `decimals` equals `2`, a balance of `505` tokens should be displayed to a user as `5.05` (`505 / 10 ** 2`). Tokens usually opt for a value of 18, imitating the relationship between Ether and Wei. This is the default value returned by this function, unless it's overridden. NOTE: This information is only used for _display_ purposes: it in no way affects any of the arithmetic of the contract, including {IERC20-balanceOf} and {IERC20-transfer}."
      },
      "name()": {
        "details": "Returns the name of the token."
      },
      "owner()": {
        "details": "Returns the address of the current owner."
      },
      "paused()": {
        "details": "Returns true if the contract is paused, and false otherwise."
      },
      "renounceOwnership()": {
        "details": "Leaves the contract without owner. It will not be possible to call `onlyOwner` functions. Can only be called by the current owner. NOTE: Renouncing ownership will leave the contract without an owner, thereby disabling any functionality that is only available to the owner."
      },
      "symbol()": {
        "details": "Returns the symbol of the token, usually a shorter version of the name."
      },
      "totalSupply()": {
        "details": "Returns the value of tokens in existence."
      },
      "transfer(address,uint256)": {
        "details": "See {IERC20-transfer}. Requirements: - `to` cannot be the zero address. - the caller must have a balance of at least `value`."
      },
      "transferFrom(address,address,uint256)": {
        "details": "See {IERC20-transferFrom}. Skips emitting an {Approval} event indicating an allowance update. This is not required by the ERC. See {xref-ERC20-_approve-address-address-uint256-bool-}[_approve]. NOTE: Does not update the allowance if the current allowance is the maximum `uint256`. Requirements: - `from` and `to` cannot be the zero address. - `from` must have a balance of at least `value`. - the caller must have allowance for ``from``'s tokens of at least `value`."
      },
      "transferOwnership(address)": {
        "details": "Transfers ownership of the contract to a new account (`newOwner`). Can only be called by the current owner."
      }
    },
    "version": 1
  },
  "userdoc": {
    "kind": "user",
    "methods": {},
    "version": 1
  }
}